{
  "contractName": "Lottery",
  "abi": [
    {
      "inputs": [],
      "payable": false,
      "stateMutability": "nonpayable",
      "type": "constructor"
    },
    {
      "constant": true,
      "inputs": [],
      "name": "owner",
      "outputs": [
        {
          "internalType": "address",
          "name": "",
          "type": "address"
        }
      ],
      "payable": false,
      "stateMutability": "view",
      "type": "function"
    },
    {
      "constant": true,
      "inputs": [
        {
          "internalType": "uint256",
          "name": "",
          "type": "uint256"
        }
      ],
      "name": "players",
      "outputs": [
        {
          "internalType": "address payable",
          "name": "",
          "type": "address"
        }
      ],
      "payable": false,
      "stateMutability": "view",
      "type": "function"
    },
    {
      "constant": false,
      "inputs": [],
      "name": "deposit",
      "outputs": [],
      "payable": true,
      "stateMutability": "payable",
      "type": "function"
    },
    {
      "constant": true,
      "inputs": [],
      "name": "GenerateRandomNum",
      "outputs": [
        {
          "internalType": "uint256",
          "name": "",
          "type": "uint256"
        }
      ],
      "payable": false,
      "stateMutability": "view",
      "type": "function"
    },
    {
      "constant": false,
      "inputs": [],
      "name": "pickWinner",
      "outputs": [],
      "payable": false,
      "stateMutability": "nonpayable",
      "type": "function"
    }
  ],
  "bytecode": "0x608060405234801561001057600080fd5b50336000806101000a81548173ffffffffffffffffffffffffffffffffffffffff021916908373ffffffffffffffffffffffffffffffffffffffff1602179055506104d7806100606000396000f3fe60806040526004361061004a5760003560e01c80632f160a4b1461004f5780635d495aea1461007a5780638da5cb5b14610091578063d0e30db0146100e8578063f71d96cb146100f2575b600080fd5b34801561005b57600080fd5b5061006461016d565b6040518082815260200191505060405180910390f35b34801561008657600080fd5b5061008f6101b3565b005b34801561009d57600080fd5b506100a66102f7565b604051808273ffffffffffffffffffffffffffffffffffffffff1673ffffffffffffffffffffffffffffffffffffffff16815260200191505060405180910390f35b6100f061031c565b005b3480156100fe57600080fd5b5061012b6004803603602081101561011557600080fd5b8101908080359060200190929190505050610399565b604051808273ffffffffffffffffffffffffffffffffffffffff1673ffffffffffffffffffffffffffffffffffffffff16815260200191505060405180910390f35b600042446001805490506040516020018084815260200183815260200182815260200193505050506040516020818303038152906040528051906020012060001c905090565b6000809054906101000a900473ffffffffffffffffffffffffffffffffffffffff1673ffffffffffffffffffffffffffffffffffffffff163373ffffffffffffffffffffffffffffffffffffffff1614156102f557600061021261016d565b90506000600180549050828161022457fe5b06905060006001828154811061023657fe5b9060005260206000200160009054906101000a900473ffffffffffffffffffffffffffffffffffffffff1690508073ffffffffffffffffffffffffffffffffffffffff166108fc479081150290604051600060405180830381858888f193505050501580156102a9573d6000803e3d6000fd5b5060006040519080825280602002602001820160405280156102da5781602001602082028038833980820191505090505b50600190805190602001906102f09291906103d5565b505050505b565b6000809054906101000a900473ffffffffffffffffffffffffffffffffffffffff1681565b670de0b6b3a764000034101561033157600080fd5b60013390806001815401808255809150509060018203906000526020600020016000909192909190916101000a81548173ffffffffffffffffffffffffffffffffffffffff021916908373ffffffffffffffffffffffffffffffffffffffff16021790555050565b600181815481106103a657fe5b906000526020600020016000915054906101000a900473ffffffffffffffffffffffffffffffffffffffff1681565b82805482825590600052602060002090810192821561044e579160200282015b8281111561044d5782518260006101000a81548173ffffffffffffffffffffffffffffffffffffffff021916908373ffffffffffffffffffffffffffffffffffffffff160217905550916020019190600101906103f5565b5b50905061045b919061045f565b5090565b61049f91905b8082111561049b57600081816101000a81549073ffffffffffffffffffffffffffffffffffffffff021916905550600101610465565b5090565b9056fea265627a7a72315820aeccc8d455326c3561a1550a04667bf348fcc3833946bf7df43ebb8b1670b14a64736f6c63430005100032",
  "source": "pragma solidity ^0.5.13;\r\n\r\n\r\ncontract Lottery {\r\n    address public owner;\r\n    \r\n    address payable [] public players ;\r\n    \r\n    constructor () public {\r\n        owner = msg.sender ;\r\n    }\r\n        \r\n        modifier OwnerOnly {\r\n            if(msg.sender == owner) {\r\n                _;\r\n            }\r\n        }\r\n    \r\n    function deposit() public payable {\r\n        require(msg.value >= 1 ether);\r\n        players.push(msg.sender);\r\n    }\r\n    \r\n    function GenerateRandomNum () public view returns(uint){\r\n        \r\n        return uint (keccak256(abi.encodePacked(now, block.difficulty , players.length)));\r\n    }\r\n    \r\n    function pickWinner() OwnerOnly public {\r\n        \r\n        uint randonNumber = GenerateRandomNum();\r\n        \r\n        uint index = randonNumber % players.length ;\r\n        \r\n        address payable winner ;\r\n        \r\n        winner = players[index];\r\n        \r\n        winner.transfer (address(this).balance);\r\n        players = new address payable [] (0) ;\r\n        \r\n    }\r\n    \r\n    \r\n    \r\n    \r\n}",
  "sourcePath": "D:/Lottery/Lottery-Contract/contracts/Lottery.sol",
  "compiler": {
    "name": "solc",
    "version": "0.5.16+commit.9c3226ce.Emscripten.clang"
  },
  "schemaVersion": "3.2.3",
  "updatedAt": "2021-05-11T03:12:06.394Z",
  "networkType": "ethereum",
  "devdoc": {
    "methods": {}
  },
  "userdoc": {
    "methods": {}
  }
}